:020000040800F2
:10000000B864002031CF000851CC000853CC000860
:100010000DCF000855CC000857CC000800000000A8
:1000200000000000000000000000000007CA0008F7
:1000300059CC0008000000007DC90008F70F000837
:1000400099CF00089DCF0008A1CF0008A5CF0008D8
:10005000A9CF0008ADCF0008B1CF0008B5CF000888
:10006000B9CF0008BDCF0008C1CF0008C5CF000838
:10007000C9CF0008CDCF0008D1CF0008D5CF0008E8
:10008000D9CF0008DDCF0008E1CF0008E5CF000898
:10009000E9CF0008EDCF0008F1CF00085BCC0008E5
:1000A000F5CF0008F9CF0008FDCF000801D0000807
:1000B00005D0000809D000080DD0000811D00008B4
:1000C00015D0000819D000081DD0000821D0000864
:1000D00025D0000829D000082DD0000831D0000814
:1000E00079CC000835D0000839D000083DD0000890
:1000F00041D0000845D0000849D000084DD0000884
:1001000051D0000855D0000859D000085DD0000833
:1001100061D0000865D00008A5CC000869D00008AF
:100120006DD0000871D0000875D0000879D00008A3
:100130007DD0000881D0000885D0000889D0000853
:100140008DD0000891D0000895D0000899D0000803
:100150009DD00008A1D00008A5D00008A9D00008B3
:10016000ADD00008B1D00008B5D00008B9D0000863
:10017000BDD00008C1D00008000000000000000051
:10018000C5D00008C9D000082DE9F84785B00600A1
:100190000F00904699460F9C109D002C07D15020CF
:1001A00080F31188BFF34F8FBFF36F8FFEE7002DF1
:1001B00007D1502080F31188BFF34F8FBFF36F8FAB
:1001C000FEE7882000900098882807D0502080F310
:1001D0001188BFF34F8FBFF36F8FFEE70098002D9C
:1001E00019D0002C17D0AA46CAF8504002208AF82D
:1001F000850000200390CDF808A004A801900E9877
:1002000000904B4642463900300000F077F85046E7
:1002100000F005F901E000200490049806B0BDE864
:10022000F087F8B584B005000E005FF0FF3768690D
:10023000002807D1502080F31188BFF34F8FBFF300
:100240006F8FFEE7686900281CD0882000F068FDE9
:100250000400002C16D068692065012084F8850010
:1002600015F1180003900294019628690090EB683C
:100270002A896968286800F041F8200000F0CFF86A
:1002800001200700380005B0F0BD2DE9F84384B027
:1002900006000F0090469946404680B2800000F06C
:1002A0003FFD0500002D0BD0882000F039FD040033
:1002B000002C01D0256504E0280000F0C9FD00E015
:1002C0000024002C15D0002084F885000020039025
:1002D00002940D9801900C9800904B46424692B2C1
:1002E0003900300000F00AF8200000F098F80120F2
:1002F00001E05FF0FF3005B0BDE8F0832DE9F94F74
:1003000081B00C0016000C980D9D0E9F002802D5A0
:100310005FF0010901E05FF0000920F000400C905F
:10032000B00000905FF0A50BD7F850A05A46009996
:1003300050460BF007FF386D00EB8600B0F1040A61
:100340005FEADA0A5FEACA0A1AF00700002807D053
:10035000502080F31188BFF34F8FBFF36F8FFEE7FC
:10036000002C15D000208046B8F10A0F0CD214F8EA
:10037000080007EB080181F8540014F80800002871
:1003800002D018F10108EFE7002087F85D0002E0D5
:10039000002087F854000C98052801D304200C9005
:1003A0000C98F8640C98B8660020F86617F12400E1
:1003B0000CF00FFC17F138000CF00BFC3F630C98AD
:1003C000D0F10500B8637F64002038670020F8672B
:1003D00033003A6D0F99381D00F06CFE5FF0000B92
:1003E000BBF1020F06D2002007EB8B0148671BF11F
:1003F000010BF5E70020C7F88000002087F8840093
:10040000002087F886004B46029A0199504600F07A
:100410006DFD3860002D00D02F60BDE8F78F38B536
:1004200004000CF01FFADFF87C120868401C08601A
:10043000DFF874522868002806D12C60086801286B
:100440000DD100F017FB0AE0DFF860020068002819
:1004500005D1E06C2968C96C884200D32C60DFF8B4
:1004600050020168491C016000682066DFF84412F0
:100470000A680123E06C83401A430A6014F12401E6
:10048000DFF83422E36C1420434302EB03000CF04A
:10049000A3FB0CF008FADFF81402006800280DD066
:1004A0002868C06CE16C884208D25FF08050DFF8A9
:1004B00024130860BFF34F8FBFF36F8F31BD38B582
:1004C00005000024002D15D0DFF8F0010068002899
:1004D00007D0502080F31188BFF34F8FBFF36F8F89
:1004E000FEE700F061F80021280000F0B1FB00F009
:1004F00061F80400002C08D15FF08050DFF8D412BE
:100500000860BFF34F8FBFF36F8F31BD10B586B05A
:10051000002004900020039005AA03A904A80AF073
:1005200056F8DFF84C4504980290039801905FF06C
:10053000004000900023059ADFF89015DFF8900541
:10054000FFF722FE20602068002801D0012400E08F
:100550000024012C02D100F05BFE0400012C16D116
:10056000502080F31188BFF34F8FBFF36F8F5FF080
:10057000FF30DFF8A01508600120DFF830110860B7
:100580000020DFF85412086000F0CCFC0AE014F1FF
:10059000010F07D1502080F31188BFF34F8FBFF3B5
:1005A0006F8FFEE706B010BDDFF810010168491C2F
:1005B00001607047F8B500250026DFF8004120688B
:1005C000002807D1502080F31188BFF34F8FBFF36D
:1005D0006F8FFEE70CF046F92068401E206020680F
:1005E000002857D12F480068002853D0DFF8D814CE
:1005F0000868002828D0C868C068050015F13800D0
:100600000CF011FB15F124000CF00DFBDFF8A41029
:100610000A680123E86C83401A430A6015F124013B
:10062000DFF89420EB6C1420434302EB03000CF042
:10063000D3FAE86C1C490968C96C8842D6D30120FA
:10064000DFF8D4140860D1E7002D01D00CF06CFB6A
:10065000DFF82C753C68002C0CD000F031F8002835
:1006600003D00120DFF8B0140860641E002CF4D120
:1006700000203860DFF8A004006800280AD00120BC
:1006800006005FF08050DFF84C110860BFF34F8F19
:10069000BFF36F8F0CF007F93000F2BDDFF83801BF
:1006A00000687047080000200000002014000020AF
:1006B000240000201000002048000020300000200E
:1006C0002DE9F0410027DFF870050068002878D197
:1006D00041480468641C0460002C1AD13F49086832
:1006E0000068002807D0502080F31188BFF34F8F97
:1006F000BFF36F8FFEE7D1F80080394802680A60C7
:10070000C0F80080DFF834050168491C01600CF076
:100710000BFBDFF80084D8F8000084423CD32F495B
:1007200008680068002804D15FF0FF30C8F80000B6
:1007300032E00868C068C0680500686A0600B44214
:1007400002D2C8F8006027E015F124000CF06BFA23
:10075000A86C002803D015F138000CF064FADFF81B
:10076000E0140A680123E86C83401A430A6015F11B
:100770002401DFF8D024EB6C1420434302EB030088
:100780000CF02AFAE86CDFF8AC140968C96C8842EE
:10079000C5D301200700C2E7DFF898040068DFF83E
:1007A000A414C26C142042438858022801D30120AB
:1007B0000700DFF864030068002807D00120070065
:1007C00004E0DFF8BC030168491C01603800BDE8A3
:1007D000F081000004ED00E00C000020600100202A
:1007E0006401002070B5DFF850040068002804D0D0
:1007F0000120DFF82413086059E00020DFF8181307
:100800000860DFF8441400200860DFF84024106816
:100810000B68984208D2DFF81C040368DC6F086894
:1008200004191068241ADC6708681060DFF80444B3
:100830002068056D5FF0A5362868B04208D1686869
:10084000B04205D1A868B04202D1E868B04205D0F4
:10085000206810F15401206809F0B7FEDFF8E003CA
:100860000068B0FA80F1D1F11F011422DFF8D4330F
:1008700002FB01F01858002807D1502080F311889E
:10088000BFF34F8FBFF36F8FFEE702FB01F203EB65
:100890000200426852684260426810F108039A42BE
:1008A00002D14268526842604068C068206070BDF2
:1008B00038B504000D00002C07D1502080F31188BA
:1008C000BFF34F8FBFF36F8FFEE7DFF86803006859
:1008D00010F1380120000CF08BF90121280000F004
:1008E000B7F931BD70B505000E001400002D07D119
:1008F000502080F31188BFF34F8FBFF36F8FFEE757
:10090000DFF83003006810F1380128000CF064F9BA
:10091000002C02D05FF0FF3006002100300000F014
:1009200097F970BD38B50500E868C468002C07D198
:10093000502080F31188BFF34F8FBFF36F8FFEE716
:1009400014F138000CF06FF9DFF8EC0200680028B1
:1009500017D114F124000CF066F9DFF8E4120A68EC
:100960000123E06C83401A430A6014F12401DFF88C
:10097000D422E36C1420434302EB03000CF02CF967
:1009800004E014F1380150480CF026F9DFF8A40215
:100990000068C06CE16C884205D201200121DFF8BB
:1009A0007821116000E0002032BDDFF89012096864
:1009B0000160DFF8301309684160704700002DE9DD
:1009C000F04104000D00002C07D1502080F3118865
:1009D000BFF34F8FBFF36F8FFEE7002D07D150207D
:1009E00080F31188BFF34F8FBFF36F8FFEE70BF0DB
:1009F00039FFDFF8F00206686768F71BDFF834128A
:100A0000086890F88600002806D00020096881F860
:100A100086005FF0010822E0286810F1010F02D182
:100A20005FF000081BE0DFF81402006821688842CC
:100A300005D06068864202D35FF001080FE02868A5
:100A4000874208D22868C01B28602000FFF7ADFF4E
:100A50005FF0000803E0002028605FF001080BF061
:100A600022FF4046BDE8F08101202B490860704715
:100A70002C00002070B50024052C09D2DFF8C40139
:100A8000142101FB04F108440CF094F8641CF3E712
:100A9000DFF8585228000CF08DF8DFF8546230006F
:100AA0000CF088F808480CF085F8DFF848020CF0E4
:100AB00081F8DFF844020CF07DF8DFF840020560B1
:100AC000DFF83C02066070BDFC00002078CF000813
:100AD00015CD000838B5DFF82C522868002818D04A
:100AE0000BF0C0FEDFF80C02C068C068040014F10F
:100AF00024000CF098F8DFF810020168491E01602C
:100B00002868401E28600BF0CEFE200000F006F89A
:100B1000E1E731BD280000201C00002010B50400D2
:100B200094F88500002806D1206D00F091F920008E
:100B300000F08EF913E094F88500012803D120001D
:100B400000F086F90BE094F88500022807D05020C9
:100B500080F31188BFF34F8FBFF36F8FFEE710BD97
:100B6000DFF8A8010068002801D1012007E0DFF8C4
:100B7000A0010068002801D1022000E00020704799
:100B80001800002070B5040025000026002C4FD06E
:100B900028480068854207D0502080F31188BFF3B1
:100BA0004F8FBFF36F8FFEE7E86E002807D150200C
:100BB00080F31188BFF34F8FBFF36F8FFEE7E86EAE
:100BC000401EE866E86CA96E884231D0E86E0028C5
:100BD0002ED115F124000CF026F800280ED1DFF8F4
:100BE0003811EA6C142042438858002806D1144971
:100BF0000A680123E86C83409A430A60A86EE8649F
:100C0000E86CD0F10500A8630D490A680123E86C7F
:100C100083401A430A6015F12401DFF8FC20EB6CD5
:100C20001420434302EB03000BF0D6FF0120060023
:100C3000300070BD000000203000002020000020A7
:100C40001000002048000020380000203400002060
:100C50002DE9F04105000C0022480768DFF8888084
:100C60000020D8F8001081F88600D8F80000243061
:100C70000BF0D9FF002808D1D8F8000025490A68F0
:100C80000123C06C83409A430A6015F1010F09D11A
:100C9000002C07D0D8F8000010F1240116480BF002
:100CA0009BFF1CE0E8190600D8F800004662BE422F
:100CB00008D2D8F8000010F12401114800680BF0A8
:100CC00097FF0CE0D8F8000010F124010B480068F1
:100CD0000BF08EFF114801688E4200D20660BDE81D
:100CE000F08100000C00002000000020D400002053
:100CF000E8000020100100202401002060010020F5
:100D000064010020040000200800002014000020DE
:100D100030000020100000204800002028000020A3
:100D20002DE9F84F04000025FFF73EFCDFF89C9109
:100D3000D9F80000002801D10BF0CEFEDFF890A119
:100D4000DAF8000004426ED1002C15D0614800682A
:100D5000041914F0070F0FD014F1080014F0070461
:100D6000041B14F0070F07D0502080F31188BFF345
:100D70004F8FBFF36F8FFEE7002C54D0DFF858B1D0
:100D8000DBF80000A0424ED354480700006806007C
:100D90007068A04205D23068002802D0370036685B
:100DA000F6E7D9F8000086423DD04A483968026823
:100DB00011440D0031683960006840007168091BFA
:100DC000884216D206EB0400804618F0070000287F
:100DD00007D0502080F31188BFF34F8FBFF36F8F80
:100DE000FEE77068001BC8F80400746040460BF012
:100DF000A4FEDBF800107068091ACBF80010384820
:100E0000DBF800100268914202D2DBF800100160AA
:100E10007168DAF8000001437160002030603148E9
:100E20000168491C0160FFF7C5FB002D01D109F0E5
:100E3000CDFB15F00700002807D0502080F3118863
:100E4000BFF34F8FBFF36F8FFEE72800BDE8F28F2F
:100E500070B504002600002C37D01E4800684042C0
:100E6000064435001A4968680A68104207D15020C4
:100E700080F31188BFF34F8FBFF36F8FFEE72868B1
:100E8000002807D0502080F31188BFF34F8FBFF3A5
:100E90006F8FFEE768680A68104216D0286800283D
:100EA00013D16A68086882436A60FFF77DFB0A49CC
:100EB0000A68686882180A6028000BF03EFE0A483B
:100EC0000168491C0160FFF775FB70BD8860002058
:100ED0009C60002090CF00088C6000208060002083
:100EE00090600020946000209860002010B4001FE3
:100EF0005FF080740460001F4C0864000460001FF1
:100F00000024046014380260001F7FF002040460B3
:100F10002438012B02D10224046001E00324046080
:100F200010BC7047E0B59F4801689F4A914207D1C5
:100F3000502080F31188BFF34F8FBFF36F8FFEE710
:100F400000689A49884207D1502080F31188BFF386
:100F50004F8FBFF36F8FFEE7954801780191FF2116
:100F6000017001788DF800109DF8001011F050010B
:100F7000904A1170904907220A609DF800201206DD
:100F800008D50A68521E0A609DF8002052008DF8AC
:100F90000020F2E70A68D2F10702042A07D05021A4
:100FA00081F31188BFF34F8FBFF36F8FFEE70A689D
:100FB00012020A600A6812F4E0620A600199017084
:100FC0007E48016851F470010160016851F0704180
:100FD000016000F024F80BF0BDFC002078490860A7
:100FE0000BF052FD7748016851F0404101600BF071
:100FF00013FD00200EBD80B5502080F31188BFF393
:101000004F8FBFF36F8FFFF75BFB002803D05FF0BC
:1010100080506D490860002080F3118801BD70B5D3
:101020006A480068B0F5006F37D1694C694E56F0D8
:1010300010002060684D6948801B00F02FF8684957
:101040000843286056F0110020606648861B300077
:1010500000F024F8644908432860644850F0120105
:1010600021606349081A00F019F8624908432860B2
:10107000614820607FF0604000F010F840F0985028
:1010800050F0010028605D48016851F48031016032
:101090005B48016851F00501016070BD010004204A
:1010A00020221F2804D28A4202D2401C5200F8E7B4
:1010B000400070472DE9F04706000C0017001D00A6
:1010C000002C27D14F4850F0140131604E49081AC6
:1010D000FFF7E4FF4D4908437060444850F01501A4
:1010E000B1604349081AFFF7D9FF42490843F0604D
:1010F0005FF00209B9F1040F51D219F1040050F068
:10110000100046F83900002006EBC901486019F1CB
:101110000109EFE7002D08D057F014003060A80057
:10112000FFF7BCFF394908437060002080465FF03C
:101130000109B9F1040F32D25FF00C0A0AFB08F082
:101140002044406800281BD00AFB08F0215819F100
:101150000400014351F0100146F839100AFB08F071
:1011600020444068FFF79AFF0AFB08FA04EB0A01E3
:101170008968084350F0010006EBC901486009E0A6
:1011800019F1040050F0100046F83900002006EB79
:10119000C901486018F1010819F10109C9E7BDE862
:1011A000F087000000ED00E071C20F4170C20F41F6
:1011B00000E400E0B0600020A060002020ED00E02E
:1011C0000004002034EF00E004ED00E090ED00E0CA
:1011D0009CED00E000000008A0ED00E0FFFF0F081C
:1011E00001000706FF7F000801000705000000203E
:1011F000FF030020010007011300004024ED00E080
:1012000094ED00E000000020FF7F012001000703B3
:1012100038B586B0002400F011FADFF86C040068DD
:1012200000281FD0002004900020039005AA03A9E5
:1012300004A809F0D4F9DFF85454049802900398F4
:101240000190DFF84C0400900023059ADFF8441465
:101250000FF21D10FEF798FF28602868002801D0C3
:1012600001200400002C07D1502080F31188BFF327
:101270004F8FBFF36F8FFEE7200007B030BD2DE921
:10128000FF4704000D0016001F00DDF830805FF0FE
:101290000009002C07D1502080F31188BFF34F8F35
:1012A000BFF36F8FFEE7DFF8E0A3DAF80000002855
:1012B00022D0009501960294062D15DAFFF750FC16
:1012C000022808D1002342466946DAF8000000F0FF
:1012D000BEFA814610E0002300226946DAF80000D9
:1012E00000F0B5FA814607E000233A006946DAF8D3
:1012F000000000F09BFB8146484604B0BDE8F08743
:10130000F8B505000E00DFF890030068C068C768F4
:10131000381D0BF088FC97F8280040071CD52B00DF
:101320003200B9694919380000F08CF8002819D04A
:101330000020009000232A0000213800FFF79FFFC3
:101340000400002C07D1502080F31188BFF34F8F89
:10135000BFF36F8FFEE705E097F8280010F0FE005E
:1013600087F828003800396A8847F1BD000000007E
:1013700038B50400684600F03FF8050000992800E1
:1013800000F003F800F086F8F4E77CB505000C00E7
:10139000FFF70AF9684600F042F8060000980028B6
:1013A00027D1002C08D1AE4206D3FFF703F9310054
:1013B0002800FFF7A5FF1EE0002C07D0B748006803
:1013C0000068002801D1012400E000242200A91BAC
:1013D000AD48006800F044FDFFF7ECF800280AD1A2
:1013E0005FF08050AE490860BFF34F8FBFF36F8F3F
:1013F00001E0FFF7DFF873BD0100A74A106800683D
:10140000002801D1012000E00020086008680028C1
:1014100003D11068C068006800E00020704770B514
:101420000400FFF73BF905009E4E3068854204D268
:1014300000F0BDF80120206001E000202060356050
:10144000280070BD2DE9F04104000D0016001F00BA
:101450005FF0000865602461AE420CD3F01BA16907
:10146000884202D30120804611E0211D8B4800688C
:101470000BF0BEFB0BE0BE4204D2BD4202D3012002
:10148000804604E0211D844800680BF0B1FB404613
:10149000BDE8F08178B585B0002201A97A480068DE
:1014A00000F047FB002800F0808001980028F3D46A
:1014B000039805006869002802D0281D0BF0B3FBD3
:1014C00004A8FFF7ACFF0600019800280ED0022800
:1014D0000CD00BD304283DD035D3062806D054D3E6
:1014E000082830D002D3092834D05DE095F82800D0
:1014F00050F0010085F82800029B32000299A8698B
:1015000041182800FFF79EFF00281BD02800296AF9
:10151000884795F82800400714D500200090002344
:10152000029AA869821800212800FFF7A8FE04008B
:10153000002C07D1502080F31188BFF34F8FBFF3E9
:101540006F8FFEE7A8E795F8280010F0FE0085F8F9
:101550002800A1E795F8280050F0010085F8280040
:101560000298A861A869002807D1502080F311884B
:10157000BFF34F8FBFF36F8FFEE733003200A969CF
:1015800089192800FFF75EFF86E795F82800800795
:1015900003D42800FFF75CFC05E095F8280010F064
:1015A000FE0085F8280077E776E706B070BD2DE9E4
:1015B000FC41DFF8E480D8F800000068002834D04F
:1015C000D8F80000C06800680500D8F80000C068BE
:1015D000C0680700381D0BF026FB3800396A8847C1
:1015E00097F828004007E4D5B86940190600B542CD
:1015F00007D27E603F61391DD8F800000BF0F8FA81
:10160000D7E70020009000232A0000213800FFF7D0
:1016100036FE0400002C07D1502080F31188BFF360
:101620004F8FBFF36F8FFEE7C3E7D8F800001B4969
:101630000A68C8F800200860BDE8F3817CB50BF0AB
:1016400011F9114C206800281BD1174D28000BF010
:10165000B1FA164E30000BF0ADFA0F4805600F4896
:10166000066000200090124B124A0C21052000F069
:101670006FF820602068002803D00F49206800F030
:10168000D9FB0BF010F973BD3C0000204000002096
:101690000200008080CF0008680100206C0100205B
:1016A00004ED00E044000020380100204C0100203F
:1016B000745E0020985F002088CF000870B5060097
:1016C0000C003500002D07D1502080F31188BFF3A6
:1016D0004F8FBFF36F8FFEE70BF0C4F82968EA6BFA
:1016E000286C424301EB0200A8600020A863286830
:1016F00068602968EA6B521E286C424301EB0200C5
:10170000E8605FF0FF3085F8440085F84500002C64
:1017100012D12869002817D015F11000FFF702F93F
:10172000002811D05FF08050DFF870150860BFF31B
:101730004F8FBFF36F8F07E015F110000BF03AFAEF
:1017400015F124000BF036FA0BF0ADF8012070BD56
:101750002DE9F84306000C0015001F00DDF820906D
:10176000002E07D1502080F31188BFF34F8FBFF3B5
:101770006F8FFEE7002F07D1502080F31188BFF351
:101780004F8FBFF36F8FFEE7002D01D0002C01D0EB
:10179000012000E00020C0B2002807D1502080F3D3
:1017A0001188BFF34F8FBFF36F8FFEE7002D01D17C
:1017B000002C01D1012000E00020C0B2002807D198
:1017C000502080F31188BFF34F8FBFF36F8FFEE778
:1017D000542000900098542807D0502080F311889E
:1017E000BFF34F8FBFF36F8FFEE70098B846B8F195
:1017F000000F0BD0012088F84600CDF800804B4642
:10180000DBB22A002100300000F003F84046BDE8BA
:10181000F2832DE9F04105000C0016001F00DDF8F1
:101820001880002C02D1C8F8008001E0C8F80060E0
:10183000C8F83C50C8F8404001214046FFF73EFF41
:1018400088F850700020C8F84800BDE8F0812DE904
:10185000F64782B081460D009A4600244E46002E7F
:1018600007D1502080F31188BFF34F8FBFF36F8FE4
:10187000FEE7002D02D1306C002801D1012000E0EC
:101880000020C0B2002807D1502080F31188BFF398
:101890004F8FBFF36F8FFEE7BAF1020F02D1F06BEB
:1018A000012801D1012000E00020C0B2002807D1AA
:1018B000502080F31188BFF34F8FBFF36F8FFEE787
:1018C000FFF74EF9002802D10398002801D101202A
:1018D00000E00020C0B2002807D1502080F311881A
:1018E000BFF34F8FBFF36F8FFEE70AF0BBFFB06B04
:1018F000F16B884202D3BAF1020F40D1B76B524666
:101900002900300000F0CCF98046B06C002813D0DC
:10191000BAF1020F01D1002F2DD1300000F0C6FA2C
:10192000002828D05FF08050DFF870130860BFF304
:101930004F8FBFF36F8F1EE0706A00280FD016F133
:101940002400FEF7EFFF002815D05FF08050DFF88D
:101950004C130860BFF34F8FBFF36F8F0BE0B8F1EC
:10196000000F08D05FF08050DFF830130860BFF33D
:101970004F8FBFF36F8F0AF096FF012053E003985B
:10198000002803D10AF08FFF00204CE0002C04D186
:101990006846FFF70AF8012004000AF084FFFEF70A
:1019A00003FE0AF05FFF96F9440010F1010F02D127
:1019B000002086F8440096F9450010F1010F02D18D
:1019C000002086F845000AF06EFF03A96846FEF77E
:1019D000F6FF002821D1300000F01DFA002816D0B3
:1019E000039916F11000FEF763FF300000F0C1F913
:1019F000FEF7E0FD00287FF478AF5FF08050DFF85D
:101A00009C120860BFF34F8FBFF36F8F6DE73000FC
:101A100000F0AFF9FEF7CEFD67E7300000F0A9F95E
:101A2000FEF7C8FD002004B0BDE8F0872DE9F84FAF
:101A300080460D00140099464646002E07D15020DE
:101A400080F31188BFF34F8FBFF36F8FFEE7002D38
:101A500002D1306C002801D1012000E00020C0B28A
:101A6000002807D1502080F31188BFF34F8FBFF3B8
:101A70006F8FFEE7B9F1020F02D1F06B012801D19F
:101A8000012000E00020C0B2002807D1502080F3E0
:101A90001188BFF34F8FBFF36F8FFEE70AF020FF6F
:101AA000EFF3118A502080F31188BFF34F8FBFF3FB
:101AB0006F8FB06BF16B884202D3B9F1020F33D153
:101AC00096F945B0B76B4A462900300000F0E8F8B7
:101AD00058465FF0FF3140B288421FD1B06C0028F9
:101AE0000ED0B9F1020F01D1002F1BD1300000F050
:101AF000DDF9002816D0002C14D00120206011E060
:101B0000706A00280ED016F12400FEF70BFF0028A3
:101B100008D0002C06D00120206003E01BF101005A
:101B200086F84500012000E000208AF31188BDE816
:101B3000F28F2DE9F64182B080460E000024474620
:101B4000002F07D1502080F31188BFF34F8FBFF3D0
:101B50006F8FFEE7002E02D1386C002801D10120E2
:101B600000E00020C0B2002807D1502080F3118887
:101B7000BFF34F8FBFF36F8FFEE7FEF7F1FF002833
:101B800002D10398002801D1012000E00020C0B25A
:101B9000002807D1502080F31188BFF34F8FBFF387
:101BA0006F8FFEE70AF05EFEBD6B002D1BD031008B
:101BB000380000F0C3F8681EB863386900280ED0FA
:101BC00017F11000FEF7AEFE002808D05FF080503D
:101BD000DFF8C8100860BFF34F8FBFF36F8F0AF0B4
:101BE00062FE012057E00398002803D10AF05BFE53
:101BF000002050E0002C04D16846FEF7D6FE0120FC
:101C000004000AF050FEFEF7CFFC0AF02BFE97F915
:101C1000440010F1010F02D1002087F8440097F929
:101C2000450010F1010F02D1002087F845000AF0AD
:101C30003AFE03A96846FEF7C2FE002820D138000C
:101C400000F0DBF8002815D0039917F12400FEF707
:101C50002FFE380000F08DF8FEF7ACFC0028A1D173
:101C60005FF08050DFF834100860BFF34F8FBFF390
:101C70006F8F97E7380000F07CF8FEF79BFC91E748
:101C8000380000F076F8FEF795FC380000F0B5F863
:101C9000002887D0002004B0BDE8F08104ED00E00A
:101CA0002DE9F84F06000F0014005FF00008B56B37
:101CB000306C002809D1306800283AD1B068FEF7AE
:101CC00061FF80460020B06033E0002C14D1D6F8CC
:101CD0004090BA46D6F804B04A46514658460AF0F3
:101CE00017FD7068316C084470607068B168884294
:101CF0001FD3306870601CE0D6F84090BA46D6F822
:101D00000CB04A46514658460AF002FDF068316C64
:101D100049420844F060F0683168884204D2B068F3
:101D2000316C49420844F060022C02D1002D00D0F1
:101D30006D1E681CB0634046BDE8F28F2DE9F0418E
:101D400004000D00206C002811D0E068216C0844CC
:101D5000E060E068A168884201D32068E060266CFA
:101D6000E768A8463200390040460AF0D1FCBDE8D9
:101D7000F081F8B504000AF075FD94F9455028008B
:101D800040B2012819DBA06C002807D0200000F029
:101D90008DF800280FD0FEF767FE0CE0606A00287F
:101DA00008D014F12400FEF7BDFD002803D0FEF793
:101DB0005BFE00E001E06D1EE1E75FF0FF3684F8B6
:101DC00045600AF070FD0AF04DFD94F9447038004A
:101DD00040B201280CDB2069002809D014F1100062
:101DE000FEF7A0FD002801D0FEF73EFE7F1EEEE7C5
:101DF00084F844600AF057FDF1BD38B504000AF0DC
:101E000031FDA06B002801D1012500E000250AF07A
:101E10004AFD280032BD38B504000AF023FDA06B4E
:101E2000E16B884201D1012500E000250AF03BFD6D
:101E3000280032BD10B40023052B0CD2074C54F8F7
:101E40003320002A05D144F8331004EBC30250605C
:101E500001E05B1CF0E710BC70470000AC00002004
:101E6000F8B504000D00160027000AF0FBFC97F9F6
:101E7000440010F1010F02D1002087F8440097F9C7
:101E8000450010F1010F02D1002087F845000AF04B
:101E90000AFDB86B002805D13200290017F1240093
:101EA000FEF720FD3800FFF764FFF1BD71B581B08A
:101EB0000198846C0025002C07D1502080F31188F4
:101EC000BFF34F8FBFF36F8FFEE7A06BE16B8842CC
:101ED00007D3502080F31188BFF34F8FBFF36F8F6C
:101EE000FEE7A06BE16B88421CD294F945600022AA
:101EF00001A92000FFF7D4FE050030005FF0FF319C
:101F000040B288420BD1606A00280BD014F1240043
:101F1000FEF708FD002805D00120050002E0761C30
:081F200084F84560280076BD3D
:1080000080B504F048FD012800D002DF02BDF8B5BC
:1080100004000D00FFF7F4FF070029002000F8F727
:1080200000F90600380004F04FFD3000F2BD2DE9E4
:10803000FE4304000D0016001F00FFF7E1FF81461C
:108040000B9801900A9800903B00320092B22900F0
:108050002000F8F71AF98046484604F035FD4046FE
:10806000BDE8FE8338B50400FFF7CAFF0500200015
:0C807000F8F725FA280004F027FD31BDC8
:109000002DE9FE4F0400002C01D10120EFE2DFF832
:109010000C99D9F8005015F00C05DFF80C89D8F838
:10902000007017F003072078C00640F1C480002DBF
:1090300003D00C2D78D1012F76D1DFF850A8DAF8C3
:109040000000800704D5A069002801D10120CEE2EC
:10905000DAF80000000704D5DAF8000010F0F0009C
:1090600005E0DFF8C8080068000910F0F000216A88
:1090700088421ED2206A00F00BFC002801D001209B
:10908000B5E2DAF8000050F00800CAF80000DAF89B
:10909000001031F0F001206A0143CAF80010DFF837
:1090A0009008016831F47F41E26951EA02210160D0
:1090B0001DE0DAF8000050F00800CAF80000DAF805
:1090C000001031F0F001206A0143CAF80010DFF807
:1090D0006008016831F47F41E26951EA02210160D0
:1090E000206A00F0D5FB002801D001207FE200F0CB
:1090F0002CFBDFF84018D9F80020C2F30312895C7A
:1091000011F01F01C840DFF818180860DFF81408D4
:10911000006800F025FC8DF800009DF80000002894
:1091200049D09DF8000062E2A06900282DD0DFF848
:109130005C97D9F8000050F00100C9F8000000F079
:1091400059FC0600D9F80000800706D400F052FC54
:10915000801B0328F6D3032049E2D9F8000050F021
:109160000800C9F80000D9F8001031F0F001206AB9
:109170000143C9F80010DFF8B807016831F47F41F6
:10918000E26951EA0221016015E0DFF80097D9F8A1
:10919000000040084000C9F8000000F02BFC060069
:1091A000D9F80000800706D500F024FC801B0328B6
:1091B000F6D303201BE22078C00754D5082D03D036
:1091C0000C2D0BD1032F09D1DFF8C00600688003F6
:1091D00049D56068002846D1012008E26068B0F5F2
:1091E000803F06D1DFF8A406016851F480310160A8
:1091F00018E06068B0F5A02F0AD1DFF8900601688A
:1092000051F480210160016851F48031016009E06E
:10921000DFF87806016831F480310160016831F4CB
:1092200080210160606800280ED000F0E3FB06009A
:10923000DFF858060068800315D400F0DBFB801BC4
:109240006528F5D30320D2E100F0D4FB0600DFF857
:109250003C060068800306D500F0CCFB801B652827
:10926000F5D30320C3E12078800752D5042D03D025
:109270000C2D15D1022F13D1DFF810060068400520
:1092800004D5E068002801D10120B0E1DFF8A00694
:10929000016831F0F851226951EA0261016038E059
:1092A000E06800281FD0DFF8E495D9F8000050F4FA
:1092B0008070C9F8000000F09DFB0600D9F800009E
:1092C000400506D400F096FB801B0328F6D303204C
:1092D0008DE1DFF85C06016831F0F851226951EA4E
:1092E0000261016015E0DFF8A495D9F8000030F4C0
:1092F0008070C9F8000000F07DFB0600D9F800007E
:10930000400506D500F076FB801B0328F6D303202A
:109310006DE1207800072ED56069002815D0DFF8B0
:109320000C96D9F8000050F00100C9F8000000F0D8
:1093300061FB0600D9F8000080071CD400F05AFB3E
:10934000801B0328F6D3032051E1DFF8E095D9F81C
:10935000000040084000C9F8000000F04BFB060088
:10936000D9F80000800706D500F044FB801B0328D5
:10937000F6D303203BE12078400740F181805FF085
:109380000009DFF8B4A5DAF80000C0000DD4DAF85F
:10939000000050F08050CAF80000DAF8000010F029
:1093A00080500190019801208146DFF890B5DBF8EC
:1093B0000000C00513D4DBF8000050F48070CBF837
:1093C000000000F017FB0600DBF80000C00506D423
:1093D00000F010FB801B0328F6D3032007E1A068F0
:1093E000012806D1DFF85805016851F0010101603C
:1093F00017E0A06805280AD1DFF84405016851F09C
:1094000004010160016851F00101016009E0DFF829
:1094100030050168490849000160016831F0040124
:109420000160A068002810D000F0E4FA0600DFF820
:1094300010050068800719D400F0DCFA801B41F2A7
:1094400089318842F3D30320D1E000F0D3FA06003B
:10945000DFF8EC040068800708D500F0CBFA801B29
:1094600041F289318842F3D30320C0E04846C0B2BC
:10947000012805D1DAF8000030F08050CAF8000069
:10948000A06A002800F0B2800C2D79D0A06A0228D2
:109490004ED1DFF8F8A3DAF8000030F08070CAF897
:1094A000000000F0A7FA8146DAF80000800107D535
:1094B00000F0A0FAB0EB09000328F5D3032096E0F2
:1094C000D8F80010DFF87C040140E06A0143206B0B
:1094D000401E51EA0011606B51EA0021E06B400828
:1094E000401E51EA4051206C4008401E51EA406144
:1094F000A06B000951EA4041C8F80010DAF80000FA
:1095000050F08070CAF80000D8F8000050F0807069
:10951000C8F8000000F06EFA0600DAF800008001DA
:1095200064D400F067FA801B0328F6D303205EE0C2
:10953000DFF85893D9F8000030F08070C9F80000C7
:10954000D9F8000010F0205F05D1D8F8000080089D
:109550008000C8F80000D8F80010DFF8EC030140E4
:10956000C8F8001000F046FA0600D9F800008001A3
:109570003CD500F03FFA801B0328F6D3032036E0E9
:10958000A06A012801D1012031E0D8F800000700CD
:1095900017F00300E16A884226D117F07000216BB2
:1095A000491EB0EB011F1FD117F4FE40616BB0EBF9
:1095B000012F19D1A06B072801D1002000E0012064
:1095C00017F4003181420FD117F4C000E16B490854
:1095D000491EB0EB415F07D117F0C060216C49080C
:1095E000491EB0EB416F01D0012000E00020BDE832
:1095F000FE8F2DE9F04104000D00002C01D1012067
:10960000A1E0DFF84873386810F00700A8420BD2D9
:109610003868C008C00028433860386810F0070078
:10962000A84201D001208EE02078C00742D56068B2
:10963000032806D1DFF85402006880011CD4012001
:1096400081E06068022806D1DFF8400200688003EC
:1096500012D4012077E06068002806D1DFF82C02E0
:109660000068800708D401206DE0DFF82002006860
:10967000400501D4012066E0DFF8A082D8F8001090
:109680008908890060680143C8F8001000F0B2F949
:109690000600D8F8000010F00C006168B0EB810FF4
:1096A00008D000F0A7F9801B41F289318842F0D33D
:1096B000032048E02078800707D5DFF860120A68A9
:1096C00032F0F002A06802430A60386810F0070028
:1096D00085420BD23868C008C0002843386038681B
:1096E00010F00700A84201D001202CE020784007AC
:1096F00007D5DFF828120A6832F4E062E068024316
:109700000A602078000708D5DFF81002016831F4FC
:109710006051226951EAC201016000F016F8DFF8D9
:109720001412DFF8F8211268C2F30312895C11F0F9
:109730001F01C840DFF8E8110860DFF8E8010068A1
:1097400000F00EF9C0B2BDE8F0812DE9F04100262D
:1097500000207249096811F00C01DFF8CCC1DCF877
:10976000007017F00307002903D00C291AD1012F2C
:1097700018D1DFF818E1DEF800805FEA087806D437
:10978000DFF8A8E1DEF800E0CEF3032E03E0DEF818
:1097900000E0CEF3031E6E4E56F82E6000290CD169
:1097A00030000AE0042903D1DFF8A8E1704604E0A4
:1097B000082902D1DFF8A0E170460C292DD1DCF890
:1097C00000E01EF0030E73469E46BEF1020F03D06A
:1097D000BEF1030F03D005E0DFF878E103E0DFF826
:1097E00078E100E0B646DCF80020C2F30212521C19
:1097F0001500DCF80020C2F3062202FB0EFEBEFBC1
:10980000F5F2DCF800C0CCF3416C1CF1010C5FEA0E
:109810004C0C6446B2FBF4FC6046BDE8F081404865
:109820000068704780B5FFF7FAFF4C493B4A126861
:10983000C2F30222895C11F01F01C84002BD80B54D
:10984000FFF7EDFF4549354A1268C2F3C222895C31
:1098500011F01F01C84002BD0F2202602F4A136899
:1098600013F003034360136813F0F003836013687D
:1098700013F4E063C3601268D20812F4E06202617C
:10988000324A126812F007020A6070470010024064
:109890007CB504000025284E3068C00003D500F0D8
:1098A000AFF801000FE0306850F080503060306851
:1098B00010F080500090009800F0A2F8010030688D
:1098C00030F080503060B1F5007F09D1812C15D384
:1098D000A12C02D30220050010E0012005000DE0BC
:1098E000812C02D30320050008E0802C02D1022045
:1098F000050003E0702C01D1012005001348026827
:10990000D208D2002A430260006810F00700A84283
:1099100001D0012000E0002076BD000008100240C8
:109920000C040020040400200C100240941002409B
:109930000410024020CF0008581002400070004080
:10994000901002408C809DF9FFFFEEFE0020024047
:1099500010CE00080024F40000127A0070CF000836
:109960002DE9F04387B004000025002600222100E5
:10997000362000F0FAF8362000F00CF9194801689A
:1099800051F010010160006810F010000090009884
:1099900001A902A8FFF760FFFFF744FF0700124884
:1099A000B7FBF0F8B8F10108DFF840901048C9F8AB
:1099B000000040F2E730C9F80C00C9F8048000202C
:1099C000C9F810000020C9F80800484600F0F4F873
:1099D000002803D1484600F00BF900E0012007B051
:1099E000BDE8F0835810024040420F00585F00204D
:1099F0000010004001480068704700BFA4600020CC
:109A0000DFF88C00006810F4C06070470200B2F507
:109A1000007F26D1DFF87800036813F4C063B3F544
:109A2000007F2CD0036833F4C06353F400730360E9
:109A3000DFF86000036832204343DFF85C00B3FBCB
:109A4000F0F0401C0100DFF8540003685B0503D50B
:109A5000002901D0491EF6E7006840050FD5032014
:109A60000EE0DFF82C00036813F4C063B3F5806FD9
:109A700005D0036833F4C06353F4806303600020AF
:109A80007047DFF81C00016851F480610160704785
:109A9000007000400C04002040420F001470004091
:109AA0000470004010B410F00703DFF8F84022689B
:109AB0004FF6FF010A40DFF8F01051EA03210A4394
:109AC000226010BC7047DFF8DC000068C0F30220A1
:109AD0007047010049B200290AD4012210F01F0189
:109AE0008A40DFF8C81003005BB25B0941F823200D
:109AF000704710B4020052B2002A05D40A012C4B60
:109B0000040064B21A5508E00A012A4B040064B24A
:109B100014F00F04234403F8042C10BC704770B4F5
:109B2000030013F00704D4F10700052801D3042033
:109B300001E0D4F10700251D072D01D2002500E02A
:109B4000E51E012616FA00F0401E0140A94016FA53
:109B500005F56D1E2A401143080070BC704710B512
:109B600004002000FFF79EFF10BD2DE9F041040026
:109B70000D0016000027FFF7A6FF804632002900DF
:109B80004046FFF7CCFF0100200040B2FFF7B1FFD5
:109B9000BDE8F08110B50400200040B2FFF799FF46
:109BA00010BD00000CED00E00000FA0500E100E04F
:109BB00000E400E018ED00E010B50400002C01D135
:109BC000012014E094F83D00002805D1002084F81D
:109BD0003C00200000F066F9022084F83D00211DC1
:109BE000206800F0EBF8012084F83D00002010BD53
:109BF00001000868C06850F001000A68D060086879
:109C00008268DFF820000240062A08D0B2F5803FC3
:109C100005D00868006850F001000B68186000204B
:109C2000704700000700010010B5040020680069BB
:109C300080071AD52068C068800716D57FF002001B
:109C400021680861012020772068806910F0030FE7
:109C500003D0200000F027F905E0200000F024F9EF
:109C6000200000F022F900202077206800694007DA
:109C70001AD52068C068400716D57FF00400216817
:109C80000861022020772068806910F4407F03D0AB
:109C9000200000F008F905E0200000F005F92000A0
:109CA00000F003F9002020772068006900071AD52A
:109CB0002068C068000716D57FF008002168086199
:109CC000042020772068C06910F0030F03D0200023
:109CD00000F0E9F805E0200000F0E6F8200000F0D0
:109CE000E4F80020207720680069C0061AD52068B3
:109CF000C068C00616D57FF01000216808610820F2
:109D000020772068C06910F4407F03D0200000F065
:109D1000CAF805E0200000F0C7F8200000F0C5F800
:109D20000020207720680069C0070AD52068C06835
:109D3000C00706D57FF0010021680861200000F00F
:109D4000A7FB2068006900060AD52068C0680006E5
:109D500006D57FF0800021680861200000F0D3FB69
:109D600020680069C0050AD52068C068000606D5CD
:109D70007FF4807021680861200000F0C5FB206836
:109D8000006940060AD52068C068400606D57FF005
:109D9000400021680861200000F0B7FB20680069DE
:109DA00080060AD52068C068800606D57FF02000AE
:109DB00021680861200000F0A9FB10BD10B4046800
:109DC000DFF8C030984212D0B0F1804F0FD0DFF8EA
:109DD000B82090420BD0DFF8B420904207D0DFF8D3
:109DE000B020904203D0DFF8AC20904203D134F091
:109DF00070044A68144398421ED0B0F1804F1BD0C3
:109E0000DFF88420904217D0DFF88020904213D0F2
:109E1000DFF87C2090420FD0DFF8782090420BD002
:109E2000DFF87420904207D0DFF87020904203D012
:109E3000DFF86C20904203D134F44074CA681443B4
:109E400034F080044A69144304608A68C2620A6874
:109E5000826298420FD0DFF83C2090420BD0DFF8AE
:109E60003820904207D0DFF83420904203D0DFF84A
:109E70003020904201D10A6902630122426110BC84
:109E800070470000002C0140000400400008004022
:109E9000000C0040003401400040014000440140FB
:109EA00000480140704770477047704780B500F028
:109EB0004BFB00F013F800F07FF900F089F800F098
:109EC000ADF800F0DAF800F0F1F800F019F900F060
:109ED00037F900F053F900F067FBFEE780B5B8B042
:109EE0004422002105A800F093FB142200216846BB
:109EF00000F08EFB8822002116A800F089FB00F0FC
:109F000091FBDFF8A005016831F018010160142011
:109F100005900120079001200B9000200C906020FC
:109F20000D9002200F900120109001201190282008
:109F3000129007201390022014900220159005A87B
:109F4000FFF75EF8002801D000F0DCFA0F20009047
:109F50000320019000200290002003900020049034
:109F600004216846FFF745FB002801D000F0CAFA3B
:109F7000DFF8340516900020249000202690002061
:109F80002B90002036905FF0806031900120179078
:109F9000012018901820199007201A9002201B9079
:109FA00002201C905FF480101D9016A800F042FB68
:109FB000002801D000F0A6FA4FF40070FFF726FD4C
:109FC000002801D000F09EFA00F054FD39B000BD29
:109FD00080B5DFF8D804DFF8D814016001210171E1
:109FE000002181600221C1600021016100214161E5
:109FF0004FF4807181610021C1610421016200215F
:10A000004162012181620021C1620021016300F0EF
:10A01000B1FE002801D000F075FA01BD10B5DFF8DF
:10A020009444DFF894042060DFF89004606000201E
:10A03000A0600120E060002020610020606100201D
:10A04000A0610020E06100202062200000F05AFFA3
:10A05000002801D000F056FA0021200000F0B8FFDF
:10A06000002801D000F04EFA0021200000F0E2FFAD
:10A07000002801D000F046FA10BD80B5DFF840049A
:10A08000DFF840140160FF2141600121816000215F
:10A09000C16001210161002141610021816100F065
:10A0A000FBFF002801D000F02DFA01BD80B5DFF8DC
:10A0B0001804DFF8181401604FF482714160002128
:10A0C00081604FF44071C160002101610021416154
:10A0D0004FF4007181610021C16100210162002102
:10A0E0004162002181620721C162002101630821D0
:10A0F000416301F05FF8002801D000F003FA01BDD0
:10A1000080B5DFF8CC03DFF8CC1301605FF4E131F8
:10A110004160002181600021C160002101610C21AA
:10A120004161002181610021C161002101620021A2
:10A13000416201F0A1F8002801D000F0E3F901BD6F
:10A1400080B5E548E54901605FF4E13141600021F7
:10A1500081600021C160002101610C214161002169
:10A1600081610021C161002101620021416201F091
:10A1700083F8002801D000F0C5F901BD80B5D848AA
:10A180005FF0A0410160062141600221C16002210F
:10A1900081610021C1610021016200214162002131
:10A1A0008162002101630021C16201F0A7FB002848
:10A1B00001D000F0A7F901BD2DE9F84386B01422C3
:10A1C0000021684600F024FAC648016851F01001E9
:10A1D0000160016811F0100105910599016851F0C5
:10A1E00004010160016811F00401059105990168FD
:10A1F00051F001010160016811F00101059105991B
:10A20000016851F002010160016811F0020105913D
:10A210000599016851F008010160006810F008001C
:10A2200005900598DFF8C09200224FF48A714846E5
:10A2300001F025FD48F20414002221005FF0904057
:10A2400001F01DFDA94D00224FF21401280001F07C
:10A2500016FDA74E002241F28101300001F00FFDF2
:10A2600001224FF40051300001F009FDA14F0022FE
:10A270004FF41071380001F002FD01222021280066
:10A2800001F0FDFC01220121484601F0F8FC40F2FA
:10A2900015100090012001900020029000200390F2
:10A2A0006946484601F0EAFB6A200090DFF84882E0
:10A2B000CDF80480002002906946484601F0DEFB9C
:10A2C0004FF4005000908D480190002002906946A4
:10A2D000380001F0D3FB3F2000900B2001900020BC
:10A2E00002906946380001F0C9FB0320009002206B
:10A2F00001900020029003200390082004906946FA
:10A300005FF0904001F0BAFB009401200190002022
:10A3100002900020039069465FF0904001F0AEFB90
:10A32000082000900220019000200290002003905D
:10A330000120049069465FF0904001F09FFB1020DF
:10A3400000900B2001900020029069465FF0904041
:10A3500001F094FBE0200090022001900020029088
:10A36000032003900520049069465FF0904001F0BF
:10A3700085FB01200090CDF8048000200290694602
:10A38000280001F07BFB022000900B2001900020B0
:10A3900002906946280001F071FB4FF234000090F2
:10A3A00001200190002002900020039069462800BF
:10A3B00001F064FB4CF604400090CDF804800020CE
:10A3C00002906946300001F059FB43F28100009091
:10A3D0000120019000200290002003906946300087
:10A3E00001F04CFB4FF41070009001200190002010
:10A3F0000290002003906946380001F03FFB4FF4C3
:10A40000C0700090CDF804800020029069463800AA
:10A4100001F034FB02200090022001900020029005
:10A4200003200390052004906946300001F026FBCC
:10A4300078200090022001900020029003200390D9
:10A44000072004906946300001F018FB4FF440707B
:10A45000009012200190012002900320039004201C
:10A4600004906946280001F009FB00220021172012
:10A47000FFF77BFB1720FFF78DFB00220021282030
:10A48000FFF773FB2820FFF785FB07B0BDE8F083DB
:10A4900010B5040020681A49884201D101F028FC57
:10A4A00010BD00009010024085200100D45F002004
:10A4B00020600140C85E002000580040EC9C9010D5
:10A4C000145F0020001000A0105E0020003C00403F
:10A4D000105D002000380140905D002000480040E1
:10A4E000104400204C1002400010004800040048B6
:10A4F000000C004800080048000011100000211066
:10A50000001000407047704770477047704730B484
:10A51000002513E050F8042BD30744BFA9F1010331
:10A520009A18091F042942F8045BFAD213468C07D3
:10A5300044BF15809B1CC90748BF1D7050F8041B01
:10A540000029E7D130BC704710B500240320FFF785
:10A5500006FB0020FFF704FA002802D001200400C7
:10A5600001E001F0D1FB2000C0B210BD38B586B0CB
:10A5700004001F48016851F002010160006810F0FA
:10A580000200009000980420019001200290002019
:10A590000490184D01A9280001F070FA012204214D
:10A5A000280001F06CFBFEE7E0B501F08BFD002018
:10A5B00001900120009000234FF480620E490F4863
:10A5C000FDF735FDF5F7A2FFFEE7FEE7FEE70C4BD2
:10A5D00003600C4B0B604FF48073136070470A4BA1
:10A5E00003600A4B0B604FF48073136070470000E8
:10A5F0004C1002400004004840CF00086DA5000840
:10A60000005C002018480020885C0020184C0020C6
:10A6100010B5044610460A460146204601F092FD58
:10A62000204610BD0248016851F4807101607047F6
:10A63000007000402DE9F84F05005FF0000800278A
:10A640002868000531D5686E002810D0B0F5800F5D
:10A6500013D0B0F5000F03D0B0F5400F14D014E0C4
:10A66000DFF8FC03016851F4803101600FE0002144
:10A67000281D00F006FA804609E0002115F12000AF
:10A6800000F0C1FA804602E001E001208046404629
:10A69000C0B2002808D1DFF8CC130A6832F44002B7
:10A6A000686E02430A6000E047462868C00431D55E
:10A6B000A86E002810D0B0F1807F13D0B0F1007FD9
:10A6C00003D0B0F1407F14D014E0DFF894030168A8
:10A6D00051F4803101600FE00021281D00F0D1F914
:10A6E000804609E0002115F1200000F08CFA804638
:10A6F00002E001E0012080464046C0B2002808D1B7
:10A70000DFF860130A6832F04072A86E02430A60F4
:10A7100000E04746286880037CD55FF00009DFF839
:10A7200048A3DAF80000C0000DD4DAF8000050F0B9
:10A730008050CAF80000DAF8000010F08050009055
:10A74000009801208146DFF824B3DBF8000050F4C4
:10A750008070CBF80000FFF74DF90600DBF8000031
:10A76000C00506D4FFF746F9801B0328F6D3032063
:10A7700080464046C0B2002841D1DFF8F4B2DBF891
:10A78000000010F440700400002C16D0D5F88400AE
:10A79000844212D0DBF8000030F440700400DBF893
:10A7A000000050F48030CBF80000DBF8000030F4FB
:10A7B0008030CBF80000CBF80040E0070FD5FFF762
:10A7C00019F90600DBF80000800708D4FFF712F93A
:10A7D000801B41F289318842F4D3032080464046F1
:10A7E000C0B2002809D1DBF8001031F44071D5F86F
:10A7F00084000143CBF8001002E0474600E04746E2
:10A800004846C0B2012805D1DAF8000030F0805087
:10A81000CAF800002878C00707D5DFF848120A6890
:10A8200092089200A86B02430A602878800707D537
:10A83000DFF830120A6832F00C02E86B02430A605B
:10A840002878400707D5DFF81C120A6832F030027A
:10A85000286C02430A602878000707D5DFF8041245
:10A860000A6832F0C002686C02430A602878C006A9
:10A8700007D5DFF8F0110A6832F44072A86C024381
:10A880000A602878800607D5DFF8D8110A6832F404
:10A890004062E86C02430A602868800507D5DFF84B
:10A8A000C4110A6832F44022E86D02430A60286845
:10A8B000400507D5DFF8AC110A6832F44012286E63
:10A8C00002430A602878400607D5DFF898110A6825
:10A8D00032F44052286D02430A602878000607D5FA
:10A8E000DFF880110A6832F44042686D02430A6062
:10A8F0002868C00507D5DFF86C110A6832F44032C9
:10A90000A86D02430A60286880041FD5DFF854113F
:10A910000A6832F04062E86E02430A60E86EB0F105
:10A92000006F05D14E48016851F4801101600DE0BF
:10A93000E86EB0F1806F09D10121281D00F0A1F867
:10A9400080464046C0B2002800D047462868000331
:10A950001FD5DFF810110A6832F04062286F0243F9
:10A960000A60286FB0F1006F05D13D48016851F4CD
:10A97000801101600DE0286FB0F1806F09D10121D5
:10A98000281D00F07EF880464046C0B2002800D066
:10A990004746286840031FD5DFF8C8100A6832F020
:10A9A0004062686F02430A60686FB0F1006F05D1C2
:10A9B0002B48016851F4801101600DE0686FB0F11F
:10A9C000806F09D10121281D00F05BF880464046C8
:10A9D000C0B2002800D047462868400425D5DFF8DB
:10A9E00084100A6832F04052A86F02430A60A86FD0
:10A9F000B0F1805F0AD10221281D00F042F88046A4
:10AA00004046C0B2002810D047460EE0A86FB0F113
:10AA1000005F0AD1022115F1200000F0F4F8804611
:10AA20004046C0B2002800D047462868000407D539
:10AA3000DFF830100A6832F08042E86F02430A60A3
:10AA40002868C00308D5DFF81C100A6822F000420D
:10AA5000D5F8800002430A603800C0B2BDE8F28F2A
:10AA60000C10024088100240581002400070004054
:10AA700090100240DFF8E402016851F00401016027
:10AA800070472DE9F04105000C000027DFF8C812DF
:10AA9000086810F0030F12D0086810F003002A684D
:10AAA000904209D12868002806D00868C0F3021037
:10AAB000401C6968884235D00120070032E02868D0
:10AAC000012804D01ED3032811D008D31AE0DFF8E0
:10AAD0008C020068800701D40120070014E0DFF831
:10AAE0007C020068400501D4012007000CE0DFF87B
:10AAF0006C020268920304D40068400301D4012070
:10AB0000070001E0012007003800C0B2002809D189
:10AB10000A6832F07302286802436868401E52EAED
:10AB200000120A603800C0B2002868D1DFF82C8219
:10AB3000D8F8000030F08060C8F80000FEF75AFF37
:10AB40000600D8F80000000106D5FEF753FF801B71
:10AB50000328F6D3032007003800C0B200284ED1E6
:10AB6000002C0ED1DFF8F8110A68DFF8F801024076
:10AB7000A86852EA0022E868000952EA40420A60E6
:10AB800020E0012C0FD1DFF8D8110A68DFF8D801D6
:10AB90000240A86852EA002228694008401E52EA92
:10ABA00040520A600EE0DFF8B8110A68DFF8BC0115
:10ABB0000240A86852EA002268694008401E52EA32
:10ABC00040620A60D8F8000050F08060C8F80000C9
:10ABD000FEF710FF0600D8F80000000106D4FEF7CB
:10ABE00009FF801B0328F6D3032007003800C0B2FA
:10ABF000002804D15A490A68A86902430A6038004B
:10AC0000C0B2BDE8F0812DE9F04105000C0000273D
:10AC10005149086810F0030F12D0086810F00300C3
:10AC20002A68904209D12868002806D00868C0F335
:10AC30000210401C6968884232D0012007002FE0D2
:10AC40002868012804D01BD303280FD007D317E0AE
:10AC500042480068800701D40120070012E03F4805
:10AC60000068400501D4012007000BE03B48026862
:10AC7000920304D40068400301D40120070001E0DE
:10AC8000012007003800C0B2002809D10A6832F05C
:10AC90007302286802436868401E52EA00120A6084
:10ACA0003800C0B2002852D1DFF8B080D8F80000D8
:10ACB00030F08050C8F80000FEF79CFE0600D8F87F
:10ACC0000000800006D5FEF795FE801B0328F6D312
:10ACD000032007003800C0B2002838D1002C0CD166
:10ACE00023490A681F480240A86852EA0022E8681F
:10ACF000000952EA40420A600CE01D490A681B48FC
:10AD00000240A86852EA002228694008401E52EA20
:10AD100040620A60D8F8000050F08050C8F8000087
:10AD2000FEF768FE0600D8F80000800006D4FEF7A3
:10AD300061FE801B0328F6D3032007003800C0B251
:10AD4000002804D10A490A68686902430A60380089
:10AD5000C0B2BDE8F08100000C10024000100240BB
:10AD600010100240FF80FDFFFF809FFFFF80FFF972
:10AD70001410024038B50400002C01D101207DE000
:10AD8000206800F083F8DFF8F85055F8200000281C
:10AD900001D0012072E0200000F0CFFFDFF8E400D6
:10ADA0000168491C0160006801281AD1DFF8D81039
:10ADB000086830F0804008600A68A06802430A60B2
:10ADC000086830F47F0008602079012805D1086800
:10ADD000E268521E50EA02400860086850F00040E5
:10ADE00008602068006830F47140216808602068BD
:10ADF0000168226960690243A06902431143206827
:10AE0000016020680068000900012168086020686E
:10AE10000168E269206A02431143206801602068EA
:10AE2000806830F45F002168886020688068616A0B
:10AE3000A26A521E51EA02410843216888602068D4
:10AE4000406810F007002168486020684068E16AA7
:10AE5000226BD20052EA0122104321684860206828
:10AE6000006850F0800021680860012084F83400F8
:10AE7000206800F00BF845F82040002032BD0000AB
:10AE800060600020A86000200060014001001548BB
:10AE9000814201D1002023E01348814201D10120E9
:10AEA0001EE01248814201D1022019E0104881427F
:10AEB00001D1032014E00F48814201D104200FE0AA
:10AEC0000D48814201D105200AE00C48814201D1A0
:10AED000062005E00A48814201D1072000E0002059
:10AEE0007047000000600140206001404060014068
:10AEF0006060014080600140A0600140C06001408E
:10AF0000E060014010B50400002C01D101205EE09A
:10AF100094F84100002805D1002084F8400020006A
:10AF200000F040FF242084F84100206800684008B9
:10AF3000400021680860606830F070602168086136
:10AF40002068806830F4004021688860E06801284B
:10AF500005D1A06850F400402168886004E0A06832
:10AF600050F4044021688860E068022803D14FF45F
:10AF70000060216848602068406840F0007050F42C
:10AF80000040216848602068C06830F400402168B3
:10AF9000C860216960690143A06951EA0021206805
:10AFA000C160E169206A014320680160206800688F
:10AFB00050F001002168086000206064202084F8BF
:10AFC000410000202063002084F84200002010BDD2
:10AFD000020092F8410020282AD192F8400001286E
:10AFE00001D1022025E0012082F84000242082F8CF
:10AFF000410010680068400840001368186010683D
:10B00000006830F4805013681860106800680843C6
:10B01000136818601068006850F001001368186029
:10B02000202082F84100002082F84000002000E04B
:10B030000220704710B4020092F84100202827D166
:10B0400092F84000012801D1022022E0012082F87C
:10B050004000242082F84100106800684008400049
:10B06000136818601068036833F4706353EA0123AF
:10B07000106803601068006850F0010014682060D8
:10B08000202082F84100002082F84000002000E0EB
:10B09000022010BC7047000038B50400FEF7AAFC7F
:10B0A0000500002C01D1012054E094F8380001285B
:10B0B00001D102204EE0012084F8380094F83900D4
:10B0C00000280AD1002084F83800200000F09DFEFE
:10B0D00041F28831200000F043F82068006830F425
:10B0E0007060A168491E50EA012021680860206C48
:10B0F00000902B0000222021200000F033F80100F6
:10B10000C9B2002922D121680A6813490A4061683E
:10B1100052EA0162E1680A4321680A6021684A68CC
:10B120000E490A40216952EA014261690A43A16954
:10B130000A4321684A602168096851F001012268C8
:10B1400011600021E163012184F83910002184F8A5
:10B150003810C0B232BD0000EFFFFF00FEF8E0FF84
:10B16000016470472DE9F04105000E0090461F0074
:10B17000069C28688068304201D0012000E0002051
:10B180004146C9B2884212D014F1010FF1D0FEF746
:10B1900031FCC01B844201D3002CEAD1042085F885
:10B1A0003900E86B50F00100E863012000E0002066
:10B1B000BDE8F08110B50400002C01D101205AE057
:10B1C000606A00280020A06294F85D00002805D184
:10B1D000002084F85C00200000F048FE022084F883
:10B1E0005D002068006830F040002168086040F28F
:10B1F0000172E068904201D3002101E04FF48051D8
:10B20000E068B0F5706F05D0E068B0F5E06F01D090
:10B210000020A062206B002807D1E068904202D392
:10B220000220206301E0012020636268A0680243DD
:10B230002069024360690243A06910F40070024370
:10B24000E0690243206A0243A06A02432068026068
:10B25000A269120C12F00402606A0243606B02439E
:10B26000E06802430A432068426000202066012013
:10B2700084F85D00002010BD10B50400002C01D141
:10B28000012035E0A0690028FFD1606F002805D1BA
:10B29000002084F87000200000F019FE2420606770
:10B2A000206800684008400021680860200000F025
:10B2B00020F8012801D101201AE0606A002802D09C
:10B2C000200000F045FA2068406830F49040216882
:10B2D00048602068806830F02A0021688860206813
:10B2E000006850F0010021680860200000F09DFA1D
:10B2F00010BD2DE9F0470400002500265FF000088E
:10B30000DFF8201420688842FFD0A2682069024339
:10B3100060690243E069024320680368DFF80804BB
:10B3200003401343206803602068436833F44053AC
:10B33000E068034320684360D4F81890206888428E
:10B3400002D0206A50EA09092068806830F4306031
:10B3500059EA0000226890602068DFF8D02390420C
:10B3600016D1DFF8CC03006810F00300002805D0E8
:10B37000022805D006D3032806D007E001279BE06A
:10B38000022799E0042797E0082795E0102793E02B
:10B390002068DFF8A023904217D1DFF894030068FB
:10B3A00010F00C00002806D0042808D0082804D08B
:10B3B0000C2806D007E000277EE002277CE0042767
:10B3C0007AE0082778E0102776E02068DFF8682325
:10B3D000904217D1DFF85803006810F030000028C1
:10B3E00006D0102808D0202804D0302806D007E046
:10B3F000002761E002275FE004275DE008275BE0AB
:10B40000102759E02068DFF83423904217D1DFF885
:10B410002003006810F0C000002806D0402808D0A3
:10B42000802804D0C02806D007E0002744E0022787
:10B4300042E0042740E008273EE010273CE0206877
:10B44000DFF8FC22904219D1B948006810F440702E
:10B45000002809D0B0F5807F0AD0B0F5007F05D074
:10B46000B0F5407F06D007E0002725E0022723E063
:10B47000042721E008271FE010271DE020688842EC
:10B4800019D1AB48006810F44060002809D0B0F52D
:10B49000806F0AD0B0F5006F05D0B0F5406F06D0D0
:10B4A00007E0002708E0022706E0042704E0082759
:10B4B00002E0102700E01027206888427CD1380085
:10B4C000C0B2002806D0022808D0042809D00828D5
:10B4D0000BD00EE0FEF7A6F980460CE099488046B6
:10B4E00009E0FEF732F9804605E04FF4004080465F
:10B4F00001E001200600B8F1000F00F00A81616848
:10B5000003204143884505D361684FF4805041438F
:10B51000414502D201200600FBE03800C0B20028FD
:10B5200006D0022814D004281FD008282DD035E0DA
:10B53000FEF778F902004FF480736068400800213C
:10B54000E3FB02016268002300F030FE050027E003
:10B550006268520800237C48002110185941626833
:10B56000002300F023FE05001AE0FEF7EEF80200CB
:10B570004FF48073606840080021E3FB02016268B9
:10B58000002300F013FE05000AE06068400810F593
:10B5900000006168B0FBF1F0050001E00120060049
:10B5A000B5F5407F05D3B5F5801F02D22068C56090
:10B5B000AFE001200600ACE0E069B0F5004F5AD1E1
:10B5C0003800C0B2002808D0012812D002281CD0B0
:10B5D000042824D008282ED037E0FEF723F961682C
:10B5E000490811EB40016068B1FBF0F080B2050042
:10B5F0002DE0FEF724F96168490811EB400160680D
:10B60000B1FBF0F080B2050021E060684F4911EB1A
:10B6100050016068B1FBF0F080B2050017E0FEF762
:10B6200094F86168490811EB40016068B1FBF0F0E3
:10B6300080B205000BE06068400810F5803061685A
:10B64000B0FBF1F080B2050001E001200600102DF2
:10B650000ED3B5F5803F0BD24FF6F0712940C5F3FC
:10B66000420001438A46504680B22168C86050E0DB
:10B67000012006004DE03800C0B2002808D00128A3
:10B6800011D002281AD0042822D008282BD034E068
:10B69000FEF7C8F8616810EB51006168B0FBF1F08B
:10B6A00080B205002BE0FEF7CAF8616810EB51008C
:10B6B0006168B0FBF1F080B2050020E060682149CC
:10B6C00011EB50016068B1FBF0F080B2050016E0AC
:10B6D000FEF73BF8616810EB51006168B0FBF1F0D8
:10B6E00080B205000BE06068400810F5004061681A
:10B6F000B0FBF1F080B2050001E001200600102D42
:10B7000005D3B5F5803F02D22068C56001E0012075
:10B71000060000202066002060663000C0B2BDE850
:10B72000F087000000800040F369FFEF003801401F
:10B73000881002400044004000480040004C004097
:10B74000005000400024F400000024F40048E80108
:10B7500090F82410C90707D501684A6832F400320E
:10B76000816A0A4301684A6090F82410890707D566
:10B7700001684A6832F48032C16A0A4301684A604B
:10B7800090F82410490707D501684A6832F48022EE
:10B79000016B0A4301684A6090F82410090707D535
:10B7A00001684A6832F40042416B0A4301684A600A
:10B7B00090F82410C90607D501688A6832F48052CF
:10B7C000816B0A4301688A6090F82410890607D5C6
:10B7D00001688A6832F40052C16B0A4301688A60CA
:10B7E00090F82410490613D501684A6832F4801293
:10B7F000016C0A4301684A60016CB1F5801F07D1F2
:10B8000001684A6832F4C002416C0A4301684A6028
:10B8100090F82410090607D501684A6832F400221E
:10B82000816C0A4301684A60704738B50400002003
:10B83000E067FEF7DFF805002068006800070DD517
:10B840007FF07E4000902B0000225FF4001120006A
:10B8500000F01FF8002801D0032019E020680068DC
:10B8600040070DD57FF07E4000902B0000225FF452
:10B870008001200000F00DF8002801D0032007E02F
:10B88000202060672020A067002084F8700000203E
:10B8900032BD2DE9F04105000E0090461F00069CC8
:10B8A0002868C0693040B04201D1012000E000208A
:10B8B0004146C9B288421ED114F1010FF0D0FEF703
:10B8C00099F8C01B844201D3002CE9D12868006894
:10B8D00030F4D0702968086028688068400840000B
:10B8E00029688860202068672020A867002085F8E4
:10B8F0007000032000E00020BDE8F08170B58AB040
:10B900000400002C01D10120B6E0266894F8BD03A4
:10B91000002805D1002084F8BC03200000F02FFB94
:10B92000032084F8BD03F06BC00501D40020206122
:10B93000206800F088FD211D83B06846342200F0A5
:10B94000F7FE0EBC206800F049FD002804D002205C
:10B9500084F8BD0301208FE00021206800F07AFD0B
:10B9600000200100C9B26268914231D21C2102005C
:10B97000D2B24A432244012382F83D300200D2B2BF
:10B980004A43224482F83C000200D2B24A43224495
:10B990000300DBB2A2F842300200D2B24A43224492
:10B9A000002382F83F300200D2B24A4322440023EF
:10B9B00053640200D2B24A4322440023936402003B
:10B9C000D2B201FB02F1214400220A65401CC8E703
:10B9D00000252800C0B2616888422CD21C202900B2
:10B9E000C9B241432144002281F8FD212900C9B296
:10B9F0004143214481F8FC512900C9B2414321440B
:10BA0000002281F8FF212900C9B2414321440022CC
:10BA1000C1F804222900C9B2414321440022C1F8DF
:10BA200008222900C9B200FB01F020440021C0F81F
:10BA300010126D1CCDE7211D83B06846342200F042
:10BA400077FE0EBC206800F025FD002804D00220FF
:10BA500084F8BD0301200FE0002084F838000120A5
:10BA600084F8BD03606A012802D1200000F0A4FE22
:10BA7000206800F01DFE00200AB070BDF8B503007C
:10BA800000250868E840002800F0F88001260F68CB
:10BA900016FA05F007403A00002A00F0ED804868E9
:10BAA000022802D0486812281ED12800C00803EBE3
:10BAB0008000076A5FF00F0C15F00700C0B280002D
:10BAC0001CFA00FC37EA0C07D1F810C015F007008B
:10BAD000C0B280001CFA00FC5CEA07073C002800AA
:10BAE000C00803EB800004621F685FF0030C2800AD
:10BAF000C0B240001CFA00F0874391F804E01EF049
:10BB0000030E2800C0B240001EFA00FE5EEA0707DE
:10BB10001F604868012808D04868022805D0486896
:10BB2000112802D0486812281ED19C682800C0B293
:10BB300040001CFA00F08443D1F80CE02800C0B2A9
:10BB400040001EFA00FE5EEA04049C60D3F804E0A4
:10BB500016FA05F03EEA000E4868C0F30010A8404F
:10BB600050EA0E0E77465F60087910F00300032854
:10BB700009D1D86AAE40B0434C68C4F3C004AC40AD
:10BB800020430700DF62DC682800C0B240001CFAD6
:10BB900000FC34EA0C048E682800C0B240008640E5
:10BBA0003443DC604868C00066D54348066856F0F8
:10BBB00001060660006810F00100009000983F4FF9
:10BBC0002800800857F820605FF00F0C15F0030084
:10BBD000C0B280001CFA00FC36EA0C06B3F1904FAC
:10BBE00001D100241EE03648834201D1012419E02E
:10BBF0003448834201D1022414E03348834201D106
:10BC000003240FE03148834201D104240AE0304884
:10BC1000834201D1052405E02E48834201D1062448
:10BC200000E0072415F00300C0B2800084402643E2
:10BC30002800800847F82060274C206890434F6810
:10BC4000FF0300D510432060244E346894434F68AE
:10BC5000BF0300D514433460214E306890434F68D1
:10BC6000FF0200D5104330601E4E346894434F6885
:10BC7000BF0200D5144334606D1C02E7F1BD130010
:10BC8000DBB2002B03D00B009BB2836102E00B0000
:10BC90009BB28362704710B504001348016822000C
:10BCA00092B2114206D0210089B20160200080B218
:10BCB00000F01CF810BD00006010024008000140B8
:10BCC0000004004800080048000C0048001000482C
:10BCD000001400480018004800040140040401401A
:10BCE000080401400C0401401404014070470000A6
:10BCF00003490A680348006882180A60704700BF59
:10BD0000A46000200804002081B0DFF81803016857
:10BD100051F001010160006810F0010000900098EE
:10BD2000DFF80403016851F080510160006810F0F1
:10BD300080500090009801B0704710B586B00400A4
:10BD40001422002101A8FEF763FCDFF8E00200687E
:10BD5000002825D1DFF8CC02016851F08071016024
:10BD6000006810F0807000900098DFF8C40201684D
:10BD700051F010010160006810F010000090009870
:10BD80004FF42070019002200290002003900020C8
:10BD900004900620059001A9DFF89802FFF76EFED7
:10BDA00006B010BD10B586B004001422002101A811
:10BDB000FEF72EFC2068DFF88012884223D1DFF8DE
:10BDC0007002016851F002010160006810F0020089
:10BDD000009000984FF440600190122002900120E2
:10BDE0000390032004900420059001A99348FFF7D5
:10BDF00045FE8D48016851F480010160006810F42F
:10BE000080000090009806B010BD10B586B0040008
:10BE10001422002101A8FEF7FBFB20688849884214
:10BE200022D18848016851F480710160006810F4E3
:10BE30008070009000987E48016851F01001016008
:10BE4000006810F01000009000984FF47C400190C2
:10BE50000220029000200390032004900A20059005
:10BE600001A97448FFF70AFE06B010BD10B586B0F0
:10BE700004001422002101A8FEF7CAFB20687249C1
:10BE8000884222D16848016851F40041016000688D
:10BE900010F40040009000986548016851F00401DA
:10BEA0000160006810F00400009000984FF4E0502A
:10BEB00001900220029000200390032004900620AD
:10BEC000059001A96148FFF7D9FD06B010BD10B576
:10BED00086B00400142200216846FEF799FB206812
:10BEE0005B49884222D14F48016851F4804101608A
:10BEF000006810F48040059005984D48016851F0A5
:10BF000002010160006810F0020005900598C02051
:10BF1000009002200190002002900320039007204F
:10BF2000049069464548FFF7A9FD26E02068494985
:10BF3000884222D13C48016851F4802101600068A8
:10BF400010F48020059005983948016851F00801E7
:10BF50000160006810F00800059005984FF44070EB
:10BF600000900220019000200290032003900720FF
:10BF7000049069463848FFF781FD06B010BD38B51A
:10BF800086B004001422002101A8FEF741FB2068BE
:10BF9000B0F1A04F44D1264D286850F00100286030
:10BFA000286810F00100009000984FF40070019094
:10BFB000002002900020039001A95FF09040FFF75D
:10BFC0005DFD4FF4E05001900220029000200390AC
:10BFD000032004900A20059001A95FF09040FFF72C
:10BFE0004DFD286850F480502860286810F4805077
:10BFF000009000980C4D2868C0000FD4286850F0BD
:10C0000080502860286810F0805000900098FDF75C
:10C0100038FD286830F08050286001E0FDF731FDE0
:10C0200007B030BD6010024058100240AC600020E4
:10C030004C10024000100048005800400004004826
:10C04000001000A050100240003C004000080048D2
:10C050000038014000480040000C004838B504009A
:10C06000344908780500344A012010700020087017
:10C070001078002807D0502080F31188BFF34F8F2D
:10C08000BFF36F8FFEE702DF012010700020087001
:10C090001078002807D0502080F31188BFF34F8F0D
:10C0A000BFF36F8FFEE74FF47A70FBF7DBFFD7E744
:10C0B00010B5040000201F4908704FF47A70FBF798
:10C0C000D1FFF7E780B5A0B010A81C49402200F0CE
:10C0D0002FFB68461A49402200F02AFB002110A8D5
:10C0E000FBF795FF00216846FBF791FF21B000BDEB
:10C0F00010B4114B1978012918D181690A8812F4FA
:10C10000784292B2D20A1400A4B21F2C07D01400B5
:10C11000A4B21E2C03D01400A4B21D2C01D1091D01
:10C1200000E0891C816100241C7000E0FEE710BC67
:10C1300070470000206000204060002058CD0008BB
:10C1400098CD000862F30F2262F31F42401810F0EE
:10C15000030308D0C91A1FD3DB0748BF00F8012D1D
:10C1600028BF20F8022D130030B4144615461039AC
:10C1700028BF20E93C00FAD8490728BF20E90C0075
:10C1800048BF40F8042D890028BF20F8022D48BF81
:10C1900000F8012D30BC7047C91818BF00F8012DF8
:10C1A000CB0728BF00F8012D70470000BBBBE1B1F1
:10C1B000B2F5803F80F07E80022A1ED98C46B1FB0A
:10C1C000F2F102FB11C31B0443EA1043B3FBF2FC80
:10C1D00002FB1C3380B240EA0343B3FBF2F002FBE4
:10C1E000103240EA0C4000237047022A05D98446E9
:10C1F000B0FBF2F002FB10C270474AB105D100F06B
:10C20000010249085FEA30007047002200237047AE
:10C2100000F0E6BA0B0002000021002070479042B7
:10C2200071EB030CF6D3B3F5803F2FD2F0B5B3FA20
:10C2300083F7B1FA81F4A7F10F0E3D1B5340CEF105
:10C24000200602FA0EF2F3415340B5F10F0746D82B
:10C250000F3C2C444140C4F12006A040F141414034
:10C26000B1FBF3F603FB1611A2FB0645001BA94127
:10C2700002D2761E8018594180EA010221FA0EF39B
:10C2800062FA0EF200215A403046F0BD30B4B1FBE4
:10C29000F3FC03FB1C11A2FB0C45001BA94103D2BC
:10C2A000ACF1010C8018594130BC02460B46604687
:10C2B00000217047B2F1807F65D3F0B5B2FA82F702
:10C2C000B1FA81F4C7F10F063D1B22FA06F307F11C
:10C2D000110EF24120355A40B5F10F07B8D941404F
:10C2E000C4F12006A040F1414140B1FBF3FC03FB47
:10C2F0001C11A2FB0C45001BA94103D2BCF1010C8F
:10C30000801859410F2F12D30F3FC90341EA504102
:10C31000B1FBF3F603FB1611A2FB0645D4EBC030CC
:10C32000A94102D2761E8018594146EACC3C07B397
:10C330004140C7F12006B840F1414140B1FBF3F65E
:10C3400003FB1611A2FB0645001BA94102D2761E73
:10C350008018594180EA010221FA0EF3C7F1200446
:10C3600062FA0EF20CFA07F05A402CFA04F130434C
:10C37000F0BD80EA010221FA0EF3002162FA0EF20A
:10C3800060465A40F0BD8C46B1FBF2F102FB11C38E
:10C390001B0243EA1063B3FBF2FC02FB1C331B02DB
:10C3A0004CEA002043EA1063B3FBF2FC02FB1C33AF
:10C3B0001B024CEA002043EA1063B3FBF2FC02FBD1
:10C3C0001C331B024CEA002043EA1063B3FBF2FC6F
:10C3D00002FB1C324CEA0020002370470EB418B553
:10C3E00004000898012817D1A06B30F48030A063B6
:10C3F000E168DFF8B8020140E160E06830F4401025
:10C40000E0600F98012803D1E06850F48010E060EC
:10C41000200000F05DF912E0E06850F04000E060BC
:10C42000200000F055F90C99002904D1A16B51F4BA
:10C430008031A16303E0A16B31F48031A163C0B20C
:10C4400012BC5DF810FB010088684008400088605D
:10C450000020704738B504000D00E06830F0C0409F
:10C46000E0602800C0B2012804D1E06850F000501C
:10C47000E0600AE02800C0B2002804D1E06850F073
:10C480008040E06001E0012003E0322000F0AAF9E2
:10C49000002032BD0EB4F0B50400002526000027B0
:10C4A0000F2F06D2002004EB8701C1F804017F1C86
:10C4B000F6E70F9800280CD1A06B30F40010A063B1
:10C4C000206850F040002060206850F0800020601C
:10C4D00003E0A06B50F40010A063002016F560612B
:10C4E000086016F50060006816F500610860032119
:10C4F000200000F0CCF81021200000F0A6F8002861
:10C5000001D001200500200000F0B1F8002801D082
:10C5100001200500002016F500610861002016F5D5
:10C5200000614861002016F50061C861002005998E
:10C5300088422DD216EB401111F5106109680029CF
:10C5400011D5002807D15FF0006116EB401212F5FB
:10C55000106211600DE05FF0904116EB401212F591
:10C560001062116005E0002116EB401212F5106216
:10C57000116016EB401111F5106100220A6116EBF3
:10C58000401111F510614FF67F328A60401CCEE7F2
:10C590000021059881422DD216EB411010F5306034
:10C5A0000068002811D5002907D15FF0006016EB64
:10C5B000411212F5306210600DE05FF0904016EB12
:10C5C000411212F53062106005E0002016EB4112B6
:10C5D00012F53062106016EB411010F53060002249
:10C5E000026116EB411010F530604FF67F32826029
:10C5F000491CCEE716F50060006930F4807016F52E
:10C60000006210610020A0617FF080406061A0693D
:10C6100050F01000A061A269DFF8EC000243A261B3
:10C620000B98002803D0A06950F00800A0610F9873
:10C63000012805D1A06940F0804050F00400A061BD
:10C640002800C0B2F0BC5DF810FB02000023880196
:10C6500050F0200010615B1CDFF8B000834201D372
:10C66000032003E010698006F5D400207047010024
:10C67000002210200861521CDFF89000824201D392
:10C68000032003E00869C006F5D40020704710B409
:10C690000200130013F5006004680800C0B20443F0
:10C6A00013F500600460002010BC7047BFFFBDFFA1
:10C6B00038B50400250015F50060406850F0020010
:10C6C00015F500614860032000F08CF8002032BDB1
:10C6D00010B401000022521C0C48824201D30320F6
:10C6E00010E00B69002BF6D500230C6954F001040F
:10C6F0000C615B1C834201D3032003E00A69D2076B
:10C70000F7D4002010BC704700383C80410D030076
:10C7100062B38B0708D0521E11F8013B00F8013BB1
:10C7200000F024808B07F6D1830740F0208000BF03
:10C73000103A07D330B4B1E83810103AA0E83810F6
:10C74000F9D230BC530724BFB1E80810A0E80810A4
:10C7500044BF51F8043B40F8043BD20724BF31F8F2
:10C76000022B20F8022B44BF0B7803707047121F76
:10C7700017D35B0009D151F8043B20F8023B1B0C96
:10C78000121F20F8023BF6D20BE051F8043B00F8F0
:10C79000013B1B0A20F8023B1B0C121F00F8013B57
:10C7A000F3D238BF121D521E24BF11F8013B00F80E
:10C7B000013BF8D87047000001000A680120C1F869
:10C7C000FC03002081F8F403906950F00060906150
:10C7D000506D40F0805050F00300506500207047CD
:10C7E0007047000070B50400FDF704F9050026004D
:10C7F00016F1010F02D0044800688619FDF7FAF817
:10C80000401BB042FAD370BD0804002070B504008C
:10C81000A56915F8026C3000C0B2002803D00228C8
:10C8200012D008D31DE04248016851F09E410160DA
:10C8300000F002F915E05FF080503E490860BFF358
:10C840004F8FBFF36F8F0CE03B48854208D33B48C6
:10C85000A84205D3EFF3148121F0010181F314887C
:10C86000FFE770BD70B5FBF7CBFB0500502484F3E8
:10C870001188BFF34F8FBFF36F8F314E3068401C6C
:10C880003060280000F020F9306801280AD12948DA
:10C890000068000606D084F31188BFF34F8FBFF302
:10C8A0006F8FFEE770BD10B5FBF7AAFB04002449AB
:10C8B0000868002807D1502080F31188BFF34F8FFC
:10C8C000BFF36F8FFEE70868401E08600868002805
:10C8D00002D1002080F31188200000F0F5F810BD8F
:10C8E000EFF30580102811D3164A1268125C11006C
:10C8F0000A00154B1B78D2B29A4207D2502282F31B
:10C900001188BFF34F8FBFF36F8FFEE70F4A126896
:10C910000F4B1B6813F4E0639A4207D2502282F354
:10C920001188BFF34F8FBFF36F8FFEE77047000092
:10C930001CED00E004ED00E000800008FF8F00081F
:10C940000004002094CF0008B0600020A060002008
:10C950000CED00E00648002101600021054A11604D
:10C960004BF67F31044A116007210160704700BF18
:10C9700010E000E018E000E014E000E0EFF30980D0
:10C98000BFF36F8F4B4B1A681EF0100F08BF20EDDE
:10C99000108AEFF3148120E9F24F106009B44FF0D0
:10C9A000500080F31188BFF34F8FBFF36F8FF3F701
:10C9B00019FF4FF0000080F3118809BC196808685E
:10C9C00001F10401BFF35F8F3B4A136823F00103B9
:10C9D00013603A4AB1E8F00FA2E8F00F364A136844
:10C9E00043F001031360BFF34F8FB0E8F84F83F3B8
:10C9F00014881EF0100F08BFB0EC108A80F309886D
:10CA0000BFF36F8F70471EF0040F0CBFEFF3088069
:10CA1000EFF30980FFF7FABE29480068006880F349
:10CA200008884FF0000080F3148862B661B6BFF347
:10CA30004F8FBFF36F8F00DF21480068006880F3DD
:10CA400008881C4B1968086801F10401BFF35F8F67
:10CA5000194A136823F001031360184AB1E8F00F74
:10CA6000A2E8F00F144A136843F001031360BFF308
:10CA70004F8FB0E8F84F83F3148880F309884FF0A4
:10CA8000000080F311887047DFF83800016841F436
:10CA9000700101607047EFF3148010F0010F14BFB4
:10CAA000002001207047EFF3148040F0010080F374
:10CAB000148870470000002094ED00E09CED00E039
:10CAC00008ED00E088ED00E010B50400012C01D075
:10CAD000FFF7E9FF10BD000070B44FF480422E480C
:10CAE000010011F0070F04D0C91DC908C900521A6E
:10CAF00082180B002948036000244460D418284899
:10CB00000068241AE408E400264D2C6000202E68FA
:10CB1000706000202E6830601800261A46602D686C
:10CB200005604568204E35604568204E35605FF0F1
